:020000020000FC
:040000000C94180044
:10002C000C94D50008E00EBF0FEF0DBF0DE300934D
:10003C00890009E00093880000E0009380000DE047
:10004C000093810002E000936F000FE307B90CEFFF
:10005C000AB90FE304B900E00093C50007E600936A
:10006C00C40008E00093C10006E00093C2004AE01F
:10007C0032E017E028E000E30BB901E205B978940F
:10008C00022F006108B99CD1012F006208B998D1E8
:10009C00403011F40C9470004A3011F40C947D0033
:1000AC00403211F40C948C00443211F40C949900ED
:1000BC00413611F40C94A600453611F40C94B5009D
:1000CC004F3711F40C94C400433811F40C94D10044
:1000DC000C94460000E90BB904E205B9339566238C
:1000EC0021F4F1E0EAEC5DD161E00C94460000E310
:1000FC000BB901E205B917E028E03395662321F42A
:10010C00F2E0E2E14ED161E00C94460000E30BB961
:10011C0002E205B93395662321F4F2E0E4E541D11E
:10012C0061E00C94460000E30BB90CE005B9339583
:10013C00662321F4F2E0E8E934D161E00C94460046
:10014C0000E50BB904E105B914E020E03395662312
:10015C0021F4F2E0EAED25D161E00C94460004E8CC
:10016C000BB904E205B910E024E03395662321F4C1
:10017C00F3E0E0E216D161E00C94460008E80BB91C
:10018C0004E205B93395662321F4F3E0E6E609D1E0
:10019C0061E00C94460040E030E00C9446000F9374
:1001AC000FB70F9343951A951F3F29F419E02A9521
:1001BC002F3F09F420E00F910FBF0F911895457355
:1001CC007461646F20313A205331202D20566572B2
:1001DC006D656C686F3B205332202D205665726D17
:1001EC00656C686F3B205333202D205665726D650E
:1001FC006C686F3B205334202D205665726D656CF6
:10020C00686F2E0D0A0045737461646F20323A20BA
:10021C005331202D205665726D656C686F3B2053F1
:10022C0032202D2056657264653B205333202D20DF
:10023C0056657264653B205334202D205665726DD3
:10024C00656C686F2E0D0A0045737461646F203302
:10025C003A205331202D205665726D656C686F3BCA
:10026C00205332202D20416D6172656C6F3B205301
:10027C0033202D2056657264653B205334202D208D
:10028C005665726D656C686F2E0D0A00457374614E
:10029C00646F20343A205331202D205665726465EA
:1002AC003B205332202D205665726D656C686F3B78
:1002BC00205333202D2056657264653B2053342027
:1002CC002D205665726D656C686F2E0D0A00457396
:1002DC007461646F20353A205331202D20416D61BB
:1002EC0072656C6F3B205332202D205665726D6504
:1002FC006C686F3B205333202D20416D6172656C0F
:10030C006F3B205334202D205665726D656C686FE1
:10031C002E0D0A0045737461646F20363A205331F8
:10032C00202D205665726D656C686F3B2053322012
:10033C002D205665726D656C686F3B205333202DF4
:10034C00205665726D656C686F3B205334202D20F0
:10035C0056657264652E0D0A000045737461646FF6
:10036C0020373A205331202D205665726D656C680C
:10037C006F3B205332202D205665726D656C686F73
:10038C003B205333202D205665726D656C686F3B96
:10039C00205334202D20416D6172656C6F2E0D0A37
:1003AC0000005591503019F003D00C94D7010895EA
:1003BC000091C00005FF0C94DE015093C600089517
:0E03CC0084E19AEF9A95F1F78A95D9F7089592
:00000001FF
