:020000020000FC
:040000000C94180044
:10002C000C94CF0008E00EBF0FEF0DBF0DE3009353
:10003C00890009E00093880000E0009380000DE047
:10004C000093810002E000936F000FE307B90CEFFF
:10005C000AB90FE304B900E00093C50007E600936A
:10006C00C40008E00093C10006E00093C2004AE01F
:10007C0032E07894022F006108B99DD1012F006203
:10008C0008B999D1403011F40C946A004A3011F43B
:10009C000C947700403211F40C948600443211F425
:1000AC000C949300413611F40C94A000453611F4D5
:1000BC000C94AF004F3711F40C94BE00433811F47C
:1000CC000C94CB000C94400000E90BB904E205B988
:1000DC003395662321F4F1E0E0EC5ED161E00C9401
:1000EC00400000E30BB901E205B917E028E03395B5
:1000FC00662321F4F2E0E8E04FD161E00C9440007B
:10010C0000E30BB902E205B93395662321F4F2E062
:10011C00EAE442D161E00C94400000E30BB90CE03E
:10012C0005B93395662321F4F2E0EEE835D161E0B0
:10013C000C94400000E50BB904E105B914E020E093
:10014C003395662321F4F2E0E0ED26D161E00C94C6
:10015C00400004E80BB904E205B910E024E0339543
:10016C00662321F4F3E0E6E117D161E00C94400042
:10017C0008E80BB904E205B93395662321F4F3E0E2
:10018C00ECE50AD161E00C94400040E030E00C94C6
:10019C0040000F930FB70F93439566271A951F3F97
:1001AC0029F419E02A952F3F09F420E00F910FBF95
:1001BC000F91189545737461646F20313A20533157
:1001CC00202D205665726D656C686F3B2053322074
:1001DC002D205665726D656C686F3B205333202D56
:1001EC00205665726D656C686F3B205334202D2052
:1001FC005665726D656C686F2E0D0A0045737461DF
:10020C00646F20323A205331202D205665726D6573
:10021C006C686F3B205332202D2056657264653B11
:10022C00205333202D2056657264653B20533420B7
:10023C002D205665726D656C686F2E0D0A00457326
:10024C007461646F20333A205331202D205665722F
:10025C006D656C686F3B205332202D20416D6172AF
:10026C00656C6F3B205333202D2056657264653BC3
:10027C00205334202D205665726D656C686F2E0DE1
:10028C000A0045737461646F20343A205331202D79
:10029C002056657264653B205332202D20566572C2
:1002AC006D656C686F3B205333202D20566572644E
:1002BC00653B205334202D205665726D656C686F3C
:1002CC002E0D0A0045737461646F20353A2053314A
:1002DC00202D20416D6172656C6F3B205332202DB7
:1002EC00205665726D656C686F3B205333202D2052
:1002FC00416D6172656C6F3B205334202D20566527
:10030C00726D656C686F2E0D0A0045737461646FB5
:10031C0020363A205331202D205665726D656C685D
:10032C006F3B205332202D205665726D656C686FC3
:10033C003B205333202D205665726D656C686F3BE6
:10034C00205334202D2056657264652E0D0A000052
:10035C0045737461646F20373A205331202D205639
:10036C0065726D656C686F3B205332202D2056658D
:10037C00726D656C686F3B205333202D205665726F
:10038C006D656C686F3B205334202D20416D61727C
:10039C00656C6F2E0D0A00005591503019F003D08A
:1003AC000C94D20108950091C00005FF0C94D90162
:1003BC005093C600089584E19AEF9A95F1F78A95C7
:0403CC00D9F70895C0
:00000001FF
