:020000020000FC
:040000000C94180044
:10002C000C946F0003E0009389000DE000938800AE
:10003C0000E0009380000DE00093810002E000934B
:10004C006F000FE307B90FEF0AB90FE304B9789407
:10005C00012F006208B9022F006108B9322F3295C6
:10006C00307F312B303079F0353091F03031A9F0D0
:10007C003531C1F03032D9F03532F1F0303309F18D
:10008C00353321F1E5CF00E90BB904E205B9E0CF36
:10009C0000E30BB901E205B9DBCF00E30BB902E2D7
:1000AC0005B9D6CF00E30BB90CE005B9D1CF00E50B
:1000BC000BB904E105B9CCCF04E80BB904E205B9DE
:1000CC00C7CF08E80BB904E205B9C2CF10E020E0B5
:1000DC00BFCF0F930FB70F9313951A3029F410E07D
:1000EC0023952A3009F420E00F910FBF0F9118953A
:00000001FF
