:020000020000FC
:040000000C94180044
:10002C000C94720000E0009389000CE900938800A6
:10003C0000E0009380000DE00093810002E000934B
:10004C006F000FE307B90FEF0AB90FE304B93AE0F9
:10005C007894022F006108B9012F006208B9303082
:10006C0079F03A3091F03032B9F03432D1F0313697
:10007C00E9F0353611F13F3739F1333851F1E9CF29
:10008C0000E90BB904E205B9E4CF00E30BB901E2D6
:10009C0005B917E028E0DDCF00E30BB902E205B9A2
:1000AC00D8CF00E30BB90CE005B9D3CF00E50BB901
:1000BC0004E105B914E020E0CCCF04E80BB904E26C
:1000CC0005B910E024E0C5CF08E80BB904E205B986
:1000DC00C0CF10E020E0BDCF0F930FB70F93339537
:1000EC001A951F3F11F419E02A950F910FBF0F912C
:0200FC00189555
:00000001FF
