:020000020000FC
:040000000C94180044
:10002C000C948E000DE30093890009E00093880086
:10003C0000E0009380000DE00093810002E000934B
:10004C006F000FE307B90FEF0AB90FE304B900E033
:10005C000093C50007E60093C40008E00093C100BC
:10006C0006E00093C2004AE032E07894022F00616F
:10007C0008B965D0012F006208B961D0403079F021
:10008C004A30A9F04032E9F0443219F1413639F1E5
:10009C00453669F14F3799F14338B9F1E7CF00E9AB
:1000AC000BB904E205B9339588E442D0DFCF00E305
:1000BC000BB901E205B917E028E03395832F38D04E
:1000CC00D5CF00E30BB902E205B933958CE430D0FF
:1000DC00CDCF00E30BB90CE005B93395C7CF00E5E4
:1000EC000BB904E105B914E020E03395BFCF04E867
:1000FC000BB904E205B910E024E03395B7CF08E85A
:10010C000BB904E205B93395B1CF40E030E0AECF86
:10011C000F930FB70F9343951A951F3F29F419E0CE
:10012C002A952F3F09F420E00F910FBF0F911895DE
:10013C000091C00005FFFCCF8093C600089584E1B8
:0C014C009AEF9A95F1F78A95D9F708957B
:00000001FF
